{
  "_format": "hh-sol-artifact-1",
  "contractName": "DFtp",
  "sourceName": "contracts/DFtp.sol",
  "abi": [
    {
      "inputs": [
        {
          "internalType": "uint256",
          "name": "_id",
          "type": "uint256"
        },
        {
          "internalType": "string",
          "name": "_name",
          "type": "string"
        },
        {
          "internalType": "string",
          "name": "_description",
          "type": "string"
        },
        {
          "internalType": "string",
          "name": "_hashUrl",
          "type": "string"
        },
        {
          "internalType": "string",
          "name": "_category",
          "type": "string"
        },
        {
          "internalType": "bool",
          "name": "visible",
          "type": "bool"
        },
        {
          "internalType": "address[]",
          "name": "_sharedPeers",
          "type": "address[]"
        },
        {
          "internalType": "uint256",
          "name": "_createdAt",
          "type": "uint256"
        }
      ],
      "name": "addFile",
      "outputs": [],
      "stateMutability": "nonpayable",
      "type": "function"
    },
    {
      "inputs": [
        {
          "internalType": "uint256",
          "name": "_id",
          "type": "uint256"
        },
        {
          "internalType": "address[]",
          "name": "_sharedPeers",
          "type": "address[]"
        }
      ],
      "name": "addSharedPeers",
      "outputs": [],
      "stateMutability": "nonpayable",
      "type": "function"
    },
    {
      "inputs": [
        {
          "internalType": "uint256",
          "name": "id",
          "type": "uint256"
        },
        {
          "internalType": "bool",
          "name": "visible",
          "type": "bool"
        }
      ],
      "name": "changeVisibility",
      "outputs": [],
      "stateMutability": "nonpayable",
      "type": "function"
    },
    {
      "inputs": [],
      "name": "getAllMyUploadedFiles",
      "outputs": [
        {
          "components": [
            {
              "internalType": "uint256",
              "name": "id",
              "type": "uint256"
            },
            {
              "internalType": "string",
              "name": "name",
              "type": "string"
            },
            {
              "internalType": "string",
              "name": "description",
              "type": "string"
            },
            {
              "internalType": "string",
              "name": "hashUrl",
              "type": "string"
            },
            {
              "internalType": "string",
              "name": "category",
              "type": "string"
            },
            {
              "internalType": "address",
              "name": "author",
              "type": "address"
            },
            {
              "internalType": "bool",
              "name": "visible",
              "type": "bool"
            },
            {
              "internalType": "address[]",
              "name": "sharedPeers",
              "type": "address[]"
            },
            {
              "internalType": "uint256",
              "name": "createdAt",
              "type": "uint256"
            }
          ],
          "internalType": "struct DFtp.Data[]",
          "name": "",
          "type": "tuple[]"
        }
      ],
      "stateMutability": "view",
      "type": "function"
    },
    {
      "inputs": [],
      "name": "getAllPrivateSharedFiles",
      "outputs": [
        {
          "components": [
            {
              "internalType": "uint256",
              "name": "id",
              "type": "uint256"
            },
            {
              "internalType": "string",
              "name": "name",
              "type": "string"
            },
            {
              "internalType": "string",
              "name": "description",
              "type": "string"
            },
            {
              "internalType": "string",
              "name": "hashUrl",
              "type": "string"
            },
            {
              "internalType": "string",
              "name": "category",
              "type": "string"
            },
            {
              "internalType": "address",
              "name": "author",
              "type": "address"
            },
            {
              "internalType": "bool",
              "name": "visible",
              "type": "bool"
            },
            {
              "internalType": "address[]",
              "name": "sharedPeers",
              "type": "address[]"
            },
            {
              "internalType": "uint256",
              "name": "createdAt",
              "type": "uint256"
            }
          ],
          "internalType": "struct DFtp.Data[]",
          "name": "",
          "type": "tuple[]"
        }
      ],
      "stateMutability": "view",
      "type": "function"
    },
    {
      "inputs": [],
      "name": "getAllPublicSharedFiles",
      "outputs": [
        {
          "components": [
            {
              "internalType": "uint256",
              "name": "id",
              "type": "uint256"
            },
            {
              "internalType": "string",
              "name": "name",
              "type": "string"
            },
            {
              "internalType": "string",
              "name": "description",
              "type": "string"
            },
            {
              "internalType": "string",
              "name": "hashUrl",
              "type": "string"
            },
            {
              "internalType": "string",
              "name": "category",
              "type": "string"
            },
            {
              "internalType": "address",
              "name": "author",
              "type": "address"
            },
            {
              "internalType": "bool",
              "name": "visible",
              "type": "bool"
            },
            {
              "internalType": "address[]",
              "name": "sharedPeers",
              "type": "address[]"
            },
            {
              "internalType": "uint256",
              "name": "createdAt",
              "type": "uint256"
            }
          ],
          "internalType": "struct DFtp.Data[]",
          "name": "",
          "type": "tuple[]"
        }
      ],
      "stateMutability": "view",
      "type": "function"
    },
    {
      "inputs": [],
      "name": "getNumberOfItems",
      "outputs": [
        {
          "internalType": "uint256",
          "name": "",
          "type": "uint256"
        }
      ],
      "stateMutability": "view",
      "type": "function"
    },
    {
      "inputs": [
        {
          "internalType": "uint256",
          "name": "id",
          "type": "uint256"
        },
        {
          "internalType": "address[]",
          "name": "_sharedPeers",
          "type": "address[]"
        }
      ],
      "name": "removeSharedPeers",
      "outputs": [],
      "stateMutability": "nonpayable",
      "type": "function"
    }
  ],
  "bytecode": "0x608060405234801561001057600080fd5b50612e9e806100206000396000f3fe608060405234801561001057600080fd5b50600436106100885760003560e01c806375969bb61161005b57806375969bb614610101578063a7c690c31461011f578063c7c23d211461013b578063f195cbde1461015757610088565b806303a895ca1461008d578063460bafff146100ab57806350ed27c3146100c7578063730ef269146100e3575b600080fd5b610095610175565b6040516100a29190612800565b60405180910390f35b6100c560048036038101906100c091906129d6565b61064d565b005b6100e160048036038101906100dc9190612a5e565b610b65565b005b6100eb61105e565b6040516100f89190612aad565b60405180910390f35b61010961106a565b6040516101169190612800565b60405180910390f35b61013960048036038101906101349190612b7d565b61156b565b005b610155600480360381019061015091906129d6565b61170d565b005b61015f611d38565b60405161016c9190612800565b60405180910390f35b60606000808054905067ffffffffffffffff81111561019757610196612867565b5b6040519080825280602002602001820160405280156101d057816020015b6101bd61230f565b8152602001906001900390816101b55790505b509050600080805480602002602001604051908101604052809291908181526020016000905b828210156105845783829060005260206000209060080201604051806101200160405290816000820154815260200160018201805461023490612cee565b80601f016020809104026020016040519081016040528092919081815260200182805461026090612cee565b80156102ad5780601f10610282576101008083540402835291602001916102ad565b820191906000526020600020905b81548152906001019060200180831161029057829003601f168201915b505050505081526020016002820180546102c690612cee565b80601f01602080910402602001604051908101604052809291908181526020018280546102f290612cee565b801561033f5780601f106103145761010080835404028352916020019161033f565b820191906000526020600020905b81548152906001019060200180831161032257829003601f168201915b5050505050815260200160038201805461035890612cee565b80601f016020809104026020016040519081016040528092919081815260200182805461038490612cee565b80156103d15780601f106103a6576101008083540402835291602001916103d1565b820191906000526020600020905b8154815290600101906020018083116103b457829003601f168201915b505050505081526020016004820180546103ea90612cee565b80601f016020809104026020016040519081016040528092919081815260200182805461041690612cee565b80156104635780601f1061043857610100808354040283529160200191610463565b820191906000526020600020905b81548152906001019060200180831161044657829003601f168201915b505050505081526020016005820160009054906101000a900473ffffffffffffffffffffffffffffffffffffffff1673ffffffffffffffffffffffffffffffffffffffff1673ffffffffffffffffffffffffffffffffffffffff1681526020016005820160149054906101000a900460ff161515151581526020016006820180548060200260200160405190810160405280929190818152602001828054801561056257602002820191906000526020600020905b8160009054906101000a900473ffffffffffffffffffffffffffffffffffffffff1673ffffffffffffffffffffffffffffffffffffffff1681526020019060010190808311610518575b50505050508152602001600782015481525050815260200190600101906101f6565b5050505090506000805b8251811015610643573373ffffffffffffffffffffffffffffffffffffffff168382815181106105c1576105c0612d1f565b5b602002602001015160a0015173ffffffffffffffffffffffffffffffffffffffff1603610630578281815181106105fb576105fa612d1f565b5b602002602001015184838151811061061657610615612d1f565b5b6020026020010181905250818061062c90612d7d565b9250505b808061063b90612d7d565b91505061058e565b5082935050505090565b600080805480602002602001604051908101604052809291908181526020016000905b828210156109fe578382906000526020600020906008020160405180610120016040529081600082015481526020016001820180546106ae90612cee565b80601f01602080910402602001604051908101604052809291908181526020018280546106da90612cee565b80156107275780601f106106fc57610100808354040283529160200191610727565b820191906000526020600020905b81548152906001019060200180831161070a57829003601f168201915b5050505050815260200160028201805461074090612cee565b80601f016020809104026020016040519081016040528092919081815260200182805461076c90612cee565b80156107b95780601f1061078e576101008083540402835291602001916107b9565b820191906000526020600020905b81548152906001019060200180831161079c57829003601f168201915b505050505081526020016003820180546107d290612cee565b80601f01602080910402602001604051908101604052809291908181526020018280546107fe90612cee565b801561084b5780601f106108205761010080835404028352916020019161084b565b820191906000526020600020905b81548152906001019060200180831161082e57829003601f168201915b5050505050815260200160048201805461086490612cee565b80601f016020809104026020016040519081016040528092919081815260200182805461089090612cee565b80156108dd5780601f106108b2576101008083540402835291602001916108dd565b820191906000526020600020905b8154815290600101906020018083116108c057829003601f168201915b505050505081526020016005820160009054906101000a900473ffffffffffffffffffffffffffffffffffffffff1673ffffffffffffffffffffffffffffffffffffffff1673ffffffffffffffffffffffffffffffffffffffff1681526020016005820160149054906101000a900460ff16151515158152602001600682018054806020026020016040519081016040528092919081815260200182805480156109dc57602002820191906000526020600020905b8160009054906101000a900473ffffffffffffffffffffffffffffffffffffffff1673ffffffffffffffffffffffffffffffffffffffff1681526020019060010190808311610992575b5050505050815260200160078201548152505081526020019060010190610670565b50505050905060005b8151811015610b5f573373ffffffffffffffffffffffffffffffffffffffff16828281518110610a3a57610a39612d1f565b5b602002602001015160a0015173ffffffffffffffffffffffffffffffffffffffff16148015610a86575083828281518110610a7857610a77612d1f565b5b602002602001015160000151145b15610b4c5760005b8351811015610b4a5760008281548110610aab57610aaa612d1f565b5b9060005260206000209060080201600601848281518110610acf57610ace612d1f565b5b60200260200101519080600181540180825580915050600190039060005260206000200160009091909190916101000a81548173ffffffffffffffffffffffffffffffffffffffff021916908373ffffffffffffffffffffffffffffffffffffffff1602179055508080610b4290612d7d565b915050610a8e565b505b8080610b5790612d7d565b915050610a07565b50505050565b600080805480602002602001604051908101604052809291908181526020016000905b82821015610f1657838290600052602060002090600802016040518061012001604052908160008201548152602001600182018054610bc690612cee565b80601f0160208091040260200160405190810160405280929190818152602001828054610bf290612cee565b8015610c3f5780601f10610c1457610100808354040283529160200191610c3f565b820191906000526020600020905b815481529060010190602001808311610c2257829003601f168201915b50505050508152602001600282018054610c5890612cee565b80601f0160208091040260200160405190810160405280929190818152602001828054610c8490612cee565b8015610cd15780601f10610ca657610100808354040283529160200191610cd1565b820191906000526020600020905b815481529060010190602001808311610cb457829003601f168201915b50505050508152602001600382018054610cea90612cee565b80601f0160208091040260200160405190810160405280929190818152602001828054610d1690612cee565b8015610d635780601f10610d3857610100808354040283529160200191610d63565b820191906000526020600020905b815481529060010190602001808311610d4657829003601f168201915b50505050508152602001600482018054610d7c90612cee565b80601f0160208091040260200160405190810160405280929190818152602001828054610da890612cee565b8015610df55780601f10610dca57610100808354040283529160200191610df5565b820191906000526020600020905b815481529060010190602001808311610dd857829003601f168201915b505050505081526020016005820160009054906101000a900473ffffffffffffffffffffffffffffffffffffffff1673ffffffffffffffffffffffffffffffffffffffff1673ffffffffffffffffffffffffffffffffffffffff1681526020016005820160149054906101000a900460ff1615151515815260200160068201805480602002602001604051908101604052809291908181526020018280548015610ef457602002820191906000526020600020905b8160009054906101000a900473ffffffffffffffffffffffffffffffffffffffff1673ffffffffffffffffffffffffffffffffffffffff1681526020019060010190808311610eaa575b5050505050815260200160078201548152505081526020019060010190610b88565b50505050905060005b8151811015611058573373ffffffffffffffffffffffffffffffffffffffff16828281518110610f5257610f51612d1f565b5b602002602001015160a0015173ffffffffffffffffffffffffffffffffffffffff16148015610f9e575083828281518110610f9057610f8f612d1f565b5b602002602001015160000151145b1561104557821515828281518110610fb957610fb8612d1f565b5b602002602001015160c00151151503611007576040517f08c379a0000000000000000000000000000000000000000000000000000000008152600401610ffe90612e48565b60405180910390fd5b826000828154811061101c5761101b612d1f565b5b906000526020600020906008020160050160146101000a81548160ff0219169083151502179055505b808061105090612d7d565b915050610f1f565b50505050565b60008080549050905090565b60606000808054905067ffffffffffffffff81111561108c5761108b612867565b5b6040519080825280602002602001820160405280156110c557816020015b6110b261230f565b8152602001906001900390816110aa5790505b509050600080805480602002602001604051908101604052809291908181526020016000905b828210156114795783829060005260206000209060080201604051806101200160405290816000820154815260200160018201805461112990612cee565b80601f016020809104026020016040519081016040528092919081815260200182805461115590612cee565b80156111a25780601f10611177576101008083540402835291602001916111a2565b820191906000526020600020905b81548152906001019060200180831161118557829003601f168201915b505050505081526020016002820180546111bb90612cee565b80601f01602080910402602001604051908101604052809291908181526020018280546111e790612cee565b80156112345780601f1061120957610100808354040283529160200191611234565b820191906000526020600020905b81548152906001019060200180831161121757829003601f168201915b5050505050815260200160038201805461124d90612cee565b80601f016020809104026020016040519081016040528092919081815260200182805461127990612cee565b80156112c65780601f1061129b576101008083540402835291602001916112c6565b820191906000526020600020905b8154815290600101906020018083116112a957829003601f168201915b505050505081526020016004820180546112df90612cee565b80601f016020809104026020016040519081016040528092919081815260200182805461130b90612cee565b80156113585780601f1061132d57610100808354040283529160200191611358565b820191906000526020600020905b81548152906001019060200180831161133b57829003601f168201915b505050505081526020016005820160009054906101000a900473ffffffffffffffffffffffffffffffffffffffff1673ffffffffffffffffffffffffffffffffffffffff1673ffffffffffffffffffffffffffffffffffffffff1681526020016005820160149054906101000a900460ff161515151581526020016006820180548060200260200160405190810160405280929190818152602001828054801561145757602002820191906000526020600020905b8160009054906101000a900473ffffffffffffffffffffffffffffffffffffffff1673ffffffffffffffffffffffffffffffffffffffff168152602001906001019080831161140d575b50505050508152602001600782015481525050815260200190600101906110eb565b5050505090506000805b8251811015611561573373ffffffffffffffffffffffffffffffffffffffff168382815181106114b6576114b5612d1f565b5b602002602001015160a0015173ffffffffffffffffffffffffffffffffffffffff161415801561150157508281815181106114f4576114f3612d1f565b5b602002602001015160c001515b1561154e5782818151811061151957611518612d1f565b5b602002602001015184838151811061153457611533612d1f565b5b6020026020010181905250818061154a90612d7d565b9250505b808061155990612d7d565b915050611483565b5082935050505090565b60006040518061012001604052808a81526020018981526020018881526020018781526020018681526020013373ffffffffffffffffffffffffffffffffffffffff16815260200185151581526020018481526020018381525090506000819080600181540180825580915050600190039060005260206000209060080201600090919091909150600082015181600001556020820151816001019080519060200190611619929190612373565b506040820151816002019080519060200190611636929190612373565b506060820151816003019080519060200190611653929190612373565b506080820151816004019080519060200190611670929190612373565b5060a08201518160050160006101000a81548173ffffffffffffffffffffffffffffffffffffffff021916908373ffffffffffffffffffffffffffffffffffffffff16021790555060c08201518160050160146101000a81548160ff02191690831515021790555060e08201518160060190805190602001906116f49291906123f9565b5061010082015181600701555050505050505050505050565b600080805480602002602001604051908101604052809291908181526020016000905b82821015611abe5783829060005260206000209060080201604051806101200160405290816000820154815260200160018201805461176e90612cee565b80601f016020809104026020016040519081016040528092919081815260200182805461179a90612cee565b80156117e75780601f106117bc576101008083540402835291602001916117e7565b820191906000526020600020905b8154815290600101906020018083116117ca57829003601f168201915b5050505050815260200160028201805461180090612cee565b80601f016020809104026020016040519081016040528092919081815260200182805461182c90612cee565b80156118795780601f1061184e57610100808354040283529160200191611879565b820191906000526020600020905b81548152906001019060200180831161185c57829003601f168201915b5050505050815260200160038201805461189290612cee565b80601f01602080910402602001604051908101604052809291908181526020018280546118be90612cee565b801561190b5780601f106118e05761010080835404028352916020019161190b565b820191906000526020600020905b8154815290600101906020018083116118ee57829003601f168201915b5050505050815260200160048201805461192490612cee565b80601f016020809104026020016040519081016040528092919081815260200182805461195090612cee565b801561199d5780601f106119725761010080835404028352916020019161199d565b820191906000526020600020905b81548152906001019060200180831161198057829003601f168201915b505050505081526020016005820160009054906101000a900473ffffffffffffffffffffffffffffffffffffffff1673ffffffffffffffffffffffffffffffffffffffff1673ffffffffffffffffffffffffffffffffffffffff1681526020016005820160149054906101000a900460ff1615151515815260200160068201805480602002602001604051908101604052809291908181526020018280548015611a9c57602002820191906000526020600020905b8160009054906101000a900473ffffffffffffffffffffffffffffffffffffffff1673ffffffffffffffffffffffffffffffffffffffff1681526020019060010190808311611a52575b5050505050815260200160078201548152505081526020019060010190611730565b5050505090506000805b8251811015611d31573373ffffffffffffffffffffffffffffffffffffffff16838281518110611afb57611afa612d1f565b5b602002602001015160a0015173ffffffffffffffffffffffffffffffffffffffff16148015611b47575084838281518110611b3957611b38612d1f565b5b602002602001015160000151145b15611d1e576000838281518110611b6157611b60612d1f565b5b602002602001015160e0015190506000815167ffffffffffffffff811115611b8c57611b8b612867565b5b604051908082528060200260200182016040528015611bba5781602001602082028036833780820191505090505b50905060005b8651811015611ce0576000878281518110611bde57611bdd612d1f565b5b6020026020010151905060005b8751811015611ccb578173ffffffffffffffffffffffffffffffffffffffff16858281518110611c1e57611c1d612d1f565b5b602002602001015173ffffffffffffffffffffffffffffffffffffffff1614611cb857848181518110611c5457611c53612d1f565b5b6020026020010151848881518110611c6f57611c6e612d1f565b5b602002602001019073ffffffffffffffffffffffffffffffffffffffff16908173ffffffffffffffffffffffffffffffffffffffff16815250508680611cb490612d7d565b9750505b8080611cc390612d7d565b915050611beb565b50508080611cd890612d7d565b915050611bc0565b508060008481548110611cf657611cf5612d1f565b5b90600052602060002090600802016006019080519060200190611d1a9291906123f9565b5050505b8080611d2990612d7d565b915050611ac8565b5050505050565b60606000808054905067ffffffffffffffff811115611d5a57611d59612867565b5b604051908082528060200260200182016040528015611d9357816020015b611d8061230f565b815260200190600190039081611d785790505b509050600080805480602002602001604051908101604052809291908181526020016000905b8282101561214757838290600052602060002090600802016040518061012001604052908160008201548152602001600182018054611df790612cee565b80601f0160208091040260200160405190810160405280929190818152602001828054611e2390612cee565b8015611e705780601f10611e4557610100808354040283529160200191611e70565b820191906000526020600020905b815481529060010190602001808311611e5357829003601f168201915b50505050508152602001600282018054611e8990612cee565b80601f0160208091040260200160405190810160405280929190818152602001828054611eb590612cee565b8015611f025780601f10611ed757610100808354040283529160200191611f02565b820191906000526020600020905b815481529060010190602001808311611ee557829003601f168201915b50505050508152602001600382018054611f1b90612cee565b80601f0160208091040260200160405190810160405280929190818152602001828054611f4790612cee565b8015611f945780601f10611f6957610100808354040283529160200191611f94565b820191906000526020600020905b815481529060010190602001808311611f7757829003601f168201915b50505050508152602001600482018054611fad90612cee565b80601f0160208091040260200160405190810160405280929190818152602001828054611fd990612cee565b80156120265780601f10611ffb57610100808354040283529160200191612026565b820191906000526020600020905b81548152906001019060200180831161200957829003601f168201915b505050505081526020016005820160009054906101000a900473ffffffffffffffffffffffffffffffffffffffff1673ffffffffffffffffffffffffffffffffffffffff1673ffffffffffffffffffffffffffffffffffffffff1681526020016005820160149054906101000a900460ff161515151581526020016006820180548060200260200160405190810160405280929190818152602001828054801561212557602002820191906000526020600020905b8160009054906101000a900473ffffffffffffffffffffffffffffffffffffffff1673ffffffffffffffffffffffffffffffffffffffff16815260200190600101908083116120db575b5050505050815260200160078201548152505081526020019060010190611db9565b5050505090506000805b8251811015612305573373ffffffffffffffffffffffffffffffffffffffff1683828151811061218457612183612d1f565b5b602002602001015160a0015173ffffffffffffffffffffffffffffffffffffffff16141580156121d057508281815181106121c2576121c1612d1f565b5b602002602001015160c00151155b80156121fb575060008382815181106121ec576121eb612d1f565b5b602002602001015160e0015151115b156122f25760005b83828151811061221657612215612d1f565b5b602002602001015160e00151518110156122f0573373ffffffffffffffffffffffffffffffffffffffff1684838151811061225457612253612d1f565b5b602002602001015160e00151828151811061227257612271612d1f565b5b602002602001015173ffffffffffffffffffffffffffffffffffffffff16036122dd578382815181106122a8576122a7612d1f565b5b60200260200101518584815181106122c3576122c2612d1f565b5b602002602001018190525082806122d990612d7d565b9350505b80806122e890612d7d565b915050612203565b505b80806122fd90612d7d565b915050612151565b5082935050505090565b6040518061012001604052806000815260200160608152602001606081526020016060815260200160608152602001600073ffffffffffffffffffffffffffffffffffffffff16815260200160001515815260200160608152602001600081525090565b82805461237f90612cee565b90600052602060002090601f0160209004810192826123a157600085556123e8565b82601f106123ba57805160ff19168380011785556123e8565b828001600101855582156123e8579182015b828111156123e75782518255916020019190600101906123cc565b5b5090506123f59190612483565b5090565b828054828255906000526020600020908101928215612472579160200282015b828111156124715782518260006101000a81548173ffffffffffffffffffffffffffffffffffffffff021916908373ffffffffffffffffffffffffffffffffffffffff16021790555091602001919060010190612419565b5b50905061247f9190612483565b5090565b5b8082111561249c576000816000905550600101612484565b5090565b600081519050919050565b600082825260208201905092915050565b6000819050602082019050919050565b6000819050919050565b6124df816124cc565b82525050565b600081519050919050565b600082825260208201905092915050565b60005b8381101561251f578082015181840152602081019050612504565b8381111561252e576000848401525b50505050565b6000601f19601f8301169050919050565b6000612550826124e5565b61255a81856124f0565b935061256a818560208601612501565b61257381612534565b840191505092915050565b600073ffffffffffffffffffffffffffffffffffffffff82169050919050565b60006125a98261257e565b9050919050565b6125b98161259e565b82525050565b60008115159050919050565b6125d4816125bf565b82525050565b600081519050919050565b600082825260208201905092915050565b6000819050602082019050919050565b600061261283836125b0565b60208301905092915050565b6000602082019050919050565b6000612636826125da565b61264081856125e5565b935061264b836125f6565b8060005b8381101561267c5781516126638882612606565b975061266e8361261e565b92505060018101905061264f565b5085935050505092915050565b6000610120830160008301516126a260008601826124d6565b50602083015184820360208601526126ba8282612545565b915050604083015184820360408601526126d48282612545565b915050606083015184820360608601526126ee8282612545565b915050608083015184820360808601526127088282612545565b91505060a083015161271d60a08601826125b0565b5060c083015161273060c08601826125cb565b5060e083015184820360e0860152612748828261262b565b91505061010083015161275f6101008601826124d6565b508091505092915050565b60006127768383612689565b905092915050565b6000602082019050919050565b6000612796826124a0565b6127a081856124ab565b9350836020820285016127b2856124bc565b8060005b858110156127ee57848403895281516127cf858261276a565b94506127da8361277e565b925060208a019950506001810190506127b6565b50829750879550505050505092915050565b6000602082019050818103600083015261281a818461278b565b905092915050565b6000604051905090565b600080fd5b600080fd5b61283f816124cc565b811461284a57600080fd5b50565b60008135905061285c81612836565b92915050565b600080fd5b7f4e487b7100000000000000000000000000000000000000000000000000000000600052604160045260246000fd5b61289f82612534565b810181811067ffffffffffffffff821117156128be576128bd612867565b5b80604052505050565b60006128d1612822565b90506128dd8282612896565b919050565b600067ffffffffffffffff8211156128fd576128fc612867565b5b602082029050602081019050919050565b600080fd5b61291c8161259e565b811461292757600080fd5b50565b60008135905061293981612913565b92915050565b600061295261294d846128e2565b6128c7565b905080838252602082019050602084028301858111156129755761297461290e565b5b835b8181101561299e578061298a888261292a565b845260208401935050602081019050612977565b5050509392505050565b600082601f8301126129bd576129bc612862565b5b81356129cd84826020860161293f565b91505092915050565b600080604083850312156129ed576129ec61282c565b5b60006129fb8582860161284d565b925050602083013567ffffffffffffffff811115612a1c57612a1b612831565b5b612a28858286016129a8565b9150509250929050565b612a3b816125bf565b8114612a4657600080fd5b50565b600081359050612a5881612a32565b92915050565b60008060408385031215612a7557612a7461282c565b5b6000612a838582860161284d565b9250506020612a9485828601612a49565b9150509250929050565b612aa7816124cc565b82525050565b6000602082019050612ac26000830184612a9e565b92915050565b600080fd5b600067ffffffffffffffff821115612ae857612ae7612867565b5b612af182612534565b9050602081019050919050565b82818337600083830152505050565b6000612b20612b1b84612acd565b6128c7565b905082815260208101848484011115612b3c57612b3b612ac8565b5b612b47848285612afe565b509392505050565b600082601f830112612b6457612b63612862565b5b8135612b74848260208601612b0d565b91505092915050565b600080600080600080600080610100898b031215612b9e57612b9d61282c565b5b6000612bac8b828c0161284d565b985050602089013567ffffffffffffffff811115612bcd57612bcc612831565b5b612bd98b828c01612b4f565b975050604089013567ffffffffffffffff811115612bfa57612bf9612831565b5b612c068b828c01612b4f565b965050606089013567ffffffffffffffff811115612c2757612c26612831565b5b612c338b828c01612b4f565b955050608089013567ffffffffffffffff811115612c5457612c53612831565b5b612c608b828c01612b4f565b94505060a0612c718b828c01612a49565b93505060c089013567ffffffffffffffff811115612c9257612c91612831565b5b612c9e8b828c016129a8565b92505060e0612caf8b828c0161284d565b9150509295985092959890939650565b7f4e487b7100000000000000000000000000000000000000000000000000000000600052602260045260246000fd5b60006002820490506001821680612d0657607f821691505b602082108103612d1957612d18612cbf565b5b50919050565b7f4e487b7100000000000000000000000000000000000000000000000000000000600052603260045260246000fd5b7f4e487b7100000000000000000000000000000000000000000000000000000000600052601160045260246000fd5b6000612d88826124cc565b91507fffffffffffffffffffffffffffffffffffffffffffffffffffffffffffffffff8203612dba57612db9612d4e565b5b600182019050919050565b600082825260208201905092915050565b7f546869732056697369626c652073746174757320697320616c7265616479206160008201527f6374697665000000000000000000000000000000000000000000000000000000602082015250565b6000612e32602583612dc5565b9150612e3d82612dd6565b604082019050919050565b60006020820190508181036000830152612e6181612e25565b905091905056fea2646970667358221220ffc16404fbe9dcc25e1c08e8482e47cc292cdb2b8f44d93885e15aeeff38401764736f6c634300080d0033",
  "linkReferences": {},
  "deployedLinkReferences": {}
}