{
  "_format": "hh-sol-artifact-1",
  "contractName": "Voting",
  "sourceName": "contracts/Voting.sol",
  "abi": [
    {
      "inputs": [
        {
          "internalType": "address",
          "name": "tokenAddress",
          "type": "address"
        }
      ],
      "stateMutability": "nonpayable",
      "type": "constructor"
    },
    {
      "anonymous": false,
      "inputs": [
        {
          "indexed": false,
          "internalType": "address",
          "name": "from",
          "type": "address"
        },
        {
          "indexed": false,
          "internalType": "uint256",
          "name": "total",
          "type": "uint256"
        }
      ],
      "name": "AddedVotingRight",
      "type": "event"
    },
    {
      "anonymous": false,
      "inputs": [
        {
          "indexed": true,
          "internalType": "address",
          "name": "previousOwner",
          "type": "address"
        },
        {
          "indexed": true,
          "internalType": "address",
          "name": "newOwner",
          "type": "address"
        }
      ],
      "name": "OwnershipTransferred",
      "type": "event"
    },
    {
      "anonymous": false,
      "inputs": [
        {
          "indexed": false,
          "internalType": "address",
          "name": "from",
          "type": "address"
        },
        {
          "indexed": false,
          "internalType": "uint256",
          "name": "Candidatedid",
          "type": "uint256"
        }
      ],
      "name": "Voted",
      "type": "event"
    },
    {
      "inputs": [
        {
          "internalType": "address",
          "name": "",
          "type": "address"
        }
      ],
      "name": "Admins",
      "outputs": [
        {
          "internalType": "bool",
          "name": "",
          "type": "bool"
        }
      ],
      "stateMutability": "view",
      "type": "function"
    },
    {
      "inputs": [],
      "name": "CalculateWinners",
      "outputs": [],
      "stateMutability": "nonpayable",
      "type": "function"
    },
    {
      "inputs": [],
      "name": "RealeaseResults",
      "outputs": [],
      "stateMutability": "nonpayable",
      "type": "function"
    },
    {
      "inputs": [
        {
          "internalType": "address",
          "name": "_toAdd",
          "type": "address"
        }
      ],
      "name": "addAuthorized",
      "outputs": [],
      "stateMutability": "nonpayable",
      "type": "function"
    },
    {
      "inputs": [
        {
          "internalType": "string[]",
          "name": "candidateNames",
          "type": "string[]"
        }
      ],
      "name": "addCandidates",
      "outputs": [],
      "stateMutability": "nonpayable",
      "type": "function"
    },
    {
      "inputs": [],
      "name": "calculatedResult",
      "outputs": [
        {
          "internalType": "bool",
          "name": "",
          "type": "bool"
        }
      ],
      "stateMutability": "view",
      "type": "function"
    },
    {
      "inputs": [
        {
          "internalType": "uint256",
          "name": "",
          "type": "uint256"
        }
      ],
      "name": "candidates",
      "outputs": [
        {
          "internalType": "uint256",
          "name": "id",
          "type": "uint256"
        },
        {
          "internalType": "string",
          "name": "name",
          "type": "string"
        },
        {
          "internalType": "uint256",
          "name": "voteCount",
          "type": "uint256"
        }
      ],
      "stateMutability": "view",
      "type": "function"
    },
    {
      "inputs": [],
      "name": "chairperson",
      "outputs": [
        {
          "internalType": "address",
          "name": "",
          "type": "address"
        }
      ],
      "stateMutability": "view",
      "type": "function"
    },
    {
      "inputs": [],
      "name": "descriptionOfElection",
      "outputs": [
        {
          "internalType": "string",
          "name": "",
          "type": "string"
        }
      ],
      "stateMutability": "view",
      "type": "function"
    },
    {
      "inputs": [],
      "name": "endVote",
      "outputs": [],
      "stateMutability": "nonpayable",
      "type": "function"
    },
    {
      "inputs": [],
      "name": "getCandidates",
      "outputs": [
        {
          "components": [
            {
              "internalType": "uint256",
              "name": "id",
              "type": "uint256"
            },
            {
              "internalType": "string",
              "name": "name",
              "type": "string"
            },
            {
              "internalType": "uint256",
              "name": "voteCount",
              "type": "uint256"
            }
          ],
          "internalType": "struct Voting.Candidate[]",
          "name": "_candidates",
          "type": "tuple[]"
        }
      ],
      "stateMutability": "view",
      "type": "function"
    },
    {
      "inputs": [
        {
          "internalType": "address",
          "name": "voter",
          "type": "address"
        }
      ],
      "name": "giveRightToVote",
      "outputs": [],
      "stateMutability": "nonpayable",
      "type": "function"
    },
    {
      "inputs": [],
      "name": "nameOfElection",
      "outputs": [
        {
          "internalType": "string",
          "name": "",
          "type": "string"
        }
      ],
      "stateMutability": "view",
      "type": "function"
    },
    {
      "inputs": [],
      "name": "owner",
      "outputs": [
        {
          "internalType": "address",
          "name": "",
          "type": "address"
        }
      ],
      "stateMutability": "view",
      "type": "function"
    },
    {
      "inputs": [
        {
          "internalType": "address",
          "name": "_toRemove",
          "type": "address"
        }
      ],
      "name": "removeAuthorized",
      "outputs": [],
      "stateMutability": "nonpayable",
      "type": "function"
    },
    {
      "inputs": [],
      "name": "renounceOwnership",
      "outputs": [],
      "stateMutability": "nonpayable",
      "type": "function"
    },
    {
      "inputs": [],
      "name": "resultOut",
      "outputs": [
        {
          "internalType": "bool",
          "name": "",
          "type": "bool"
        }
      ],
      "stateMutability": "view",
      "type": "function"
    },
    {
      "inputs": [
        {
          "internalType": "string[]",
          "name": "info",
          "type": "string[]"
        },
        {
          "internalType": "string[]",
          "name": "candidateNames",
          "type": "string[]"
        }
      ],
      "name": "setUpElections",
      "outputs": [],
      "stateMutability": "nonpayable",
      "type": "function"
    },
    {
      "inputs": [],
      "name": "startVote",
      "outputs": [],
      "stateMutability": "nonpayable",
      "type": "function"
    },
    {
      "inputs": [],
      "name": "state",
      "outputs": [
        {
          "internalType": "enum Voting.State",
          "name": "",
          "type": "uint8"
        }
      ],
      "stateMutability": "view",
      "type": "function"
    },
    {
      "inputs": [
        {
          "internalType": "address",
          "name": "newOwner",
          "type": "address"
        }
      ],
      "name": "transferOwnership",
      "outputs": [],
      "stateMutability": "nonpayable",
      "type": "function"
    },
    {
      "inputs": [
        {
          "internalType": "uint256",
          "name": "candidate",
          "type": "uint256"
        }
      ],
      "name": "vote",
      "outputs": [],
      "stateMutability": "nonpayable",
      "type": "function"
    },
    {
      "inputs": [
        {
          "internalType": "address",
          "name": "",
          "type": "address"
        }
      ],
      "name": "voters",
      "outputs": [
        {
          "internalType": "uint256",
          "name": "weight",
          "type": "uint256"
        },
        {
          "internalType": "bool",
          "name": "voted",
          "type": "bool"
        },
        {
          "internalType": "uint256",
          "name": "vote",
          "type": "uint256"
        }
      ],
      "stateMutability": "view",
      "type": "function"
    },
    {
      "inputs": [],
      "name": "winningCandidate",
      "outputs": [
        {
          "components": [
            {
              "internalType": "uint256",
              "name": "id",
              "type": "uint256"
            },
            {
              "internalType": "string",
              "name": "name",
              "type": "string"
            },
            {
              "internalType": "uint256",
              "name": "voteCount",
              "type": "uint256"
            }
          ],
          "internalType": "struct Voting.Candidate[]",
          "name": "_winners",
          "type": "tuple[]"
        }
      ],
      "stateMutability": "view",
      "type": "function"
    }
  ],
  "bytecode": "0x608060405260006003556000600860006101000a81548160ff0219169083151502179055506000600860016101000a81548160ff0219169083151502179055503480156200004c57600080fd5b5060405162003d8e38038062003d8e833981810160405281019062000072919062000382565b62000092620000866200024c60201b60201c565b6200025460201b60201c565b80600b60016101000a81548173ffffffffffffffffffffffffffffffffffffffff021916908373ffffffffffffffffffffffffffffffffffffffff16021790555033600260006101000a81548173ffffffffffffffffffffffffffffffffffffffff021916908373ffffffffffffffffffffffffffffffffffffffff160217905550600160046000600260009054906101000a900473ffffffffffffffffffffffffffffffffffffffff1673ffffffffffffffffffffffffffffffffffffffff1673ffffffffffffffffffffffffffffffffffffffff168152602001908152602001600020600001819055506007339080600181540180825580915050600190039060005260206000200160009091909190916101000a81548173ffffffffffffffffffffffffffffffffffffffff021916908373ffffffffffffffffffffffffffffffffffffffff1602179055506000600b60006101000a81548160ff021916908360028111156200020a5762000209620003b4565b5b02179055506000600860006101000a81548160ff0219169083151502179055506000600860016101000a81548160ff02191690831515021790555050620003e3565b600033905090565b60008060009054906101000a900473ffffffffffffffffffffffffffffffffffffffff169050816000806101000a81548173ffffffffffffffffffffffffffffffffffffffff021916908373ffffffffffffffffffffffffffffffffffffffff1602179055508173ffffffffffffffffffffffffffffffffffffffff168173ffffffffffffffffffffffffffffffffffffffff167f8be0079c531659141344cd1fd0a4f28419497f9722a3daafe3b4186f6b6457e060405160405180910390a35050565b600080fd5b600073ffffffffffffffffffffffffffffffffffffffff82169050919050565b60006200034a826200031d565b9050919050565b6200035c816200033d565b81146200036857600080fd5b50565b6000815190506200037c8162000351565b92915050565b6000602082840312156200039b576200039a62000318565b5b6000620003ab848285016200036b565b91505092915050565b7f4e487b7100000000000000000000000000000000000000000000000000000000600052602160045260246000fd5b61399b80620003f36000396000f3fe608060405234801561001057600080fd5b50600436106101585760003560e01c8063962a501e116100c3578063c19d93fb1161007c578063c19d93fb14610359578063cb32d1dc14610377578063cf1c316a14610395578063d054127d146103b1578063d28178d7146103bb578063f2fde38b146103d957610158565b8063962a501e146102ab5780639e7b8d61146102c7578063a3ec138d146102e3578063a999e56214610315578063b7f5c98014610331578063b92239461461034f57610158565b80633477ee2e116101155780633477ee2e1461020d578063485d7d941461023f5780634c0a6af01461025b578063715018a6146102655780638a4bcced1461026f5780638da5cb5b1461028d57610158565b80630121b93f1461015d5780630366dc6b1461017957806306a49fce146101835780630ec6d58a146101a15780631a1000f1146101d15780632e4176cf146101ef575b600080fd5b61017760048036038101906101729190612787565b6103f5565b005b61018161075e565b005b61018b610abd565b604051610198919061296e565b60405180910390f35b6101bb60048036038101906101b691906129ee565b610bc2565b6040516101c89190612a36565b60405180910390f35b6101d9610be2565b6040516101e69190612a9b565b60405180910390f35b6101f7610c70565b6040516102049190612acc565b60405180910390f35b61022760048036038101906102229190612787565b610c96565b60405161023693929190612af6565b60405180910390f35b610259600480360381019061025491906129ee565b610d58565b005b610263610ea0565b005b61026d61104e565b005b6102776110d6565b6040516102849190612a36565b60405180910390f35b6102956110e9565b6040516102a29190612acc565b60405180910390f35b6102c560048036038101906102c09190612d4f565b611112565b005b6102e160048036038101906102dc91906129ee565b611730565b005b6102fd60048036038101906102f891906129ee565b611b95565b60405161030c93929190612dc7565b60405180910390f35b61032f600480360381019061032a9190612dfe565b611bcc565b005b610339611d92565b6040516103469190612a9b565b60405180910390f35b610357611e20565b005b610361611f6e565b60405161036e9190612ebe565b60405180910390f35b61037f611f81565b60405161038c9190612a36565b60405180910390f35b6103af60048036038101906103aa91906129ee565b611f94565b005b6103b96120a3565b005b6103c36121c5565b6040516103d0919061296e565b60405180910390f35b6103f360048036038101906103ee91906129ee565b61238e565b005b6001600281111561040957610408612e47565b5b600b60009054906101000a900460ff16600281111561042b5761042a612e47565b5b1461046b576040517f08c379a000000000000000000000000000000000000000000000000000000000815260040161046290612f25565b60405180910390fd5b6000600460003373ffffffffffffffffffffffffffffffffffffffff1673ffffffffffffffffffffffffffffffffffffffff168152602001908152602001600020905060008160000154036104f5576040517f08c379a00000000000000000000000000000000000000000000000000000000081526004016104ec90612f91565b60405180910390fd5b8060010160009054906101000a900460ff1615610547576040517f08c379a000000000000000000000000000000000000000000000000000000000815260040161053e90612ffd565b60405180910390fd5b6000600b60019054906101000a900473ffffffffffffffffffffffffffffffffffffffff1673ffffffffffffffffffffffffffffffffffffffff166370a08231336040518263ffffffff1660e01b81526004016105a49190612acc565b602060405180830381865afa1580156105c1573d6000803e3d6000fd5b505050506040513d601f19601f820116820180604052508101906105e59190613032565b90506000811161062a576040517f08c379a0000000000000000000000000000000000000000000000000000000008152600401610621906130d1565b60405180910390fd5b600b60019054906101000a900473ffffffffffffffffffffffffffffffffffffffff1673ffffffffffffffffffffffffffffffffffffffff16639dc29fac3360016040518363ffffffff1660e01b8152600401610688929190613136565b600060405180830381600087803b1580156106a257600080fd5b505af11580156106b6573d6000803e3d6000fd5b5050505060018260010160006101000a81548160ff0219169083151502179055508282600201819055508160000154600584815481106106f9576106f861315f565b5b9060005260206000209060030201600201600082825461071991906131bd565b925050819055507f4d99b957a2bc29a30ebd96a7be8e68fe50a3c701db28a91436490b7d53870ca43384604051610751929190613213565b60405180910390a1505050565b600160003373ffffffffffffffffffffffffffffffffffffffff1673ffffffffffffffffffffffffffffffffffffffff16815260200190815260200160002060009054906101000a900460ff16806107e857503373ffffffffffffffffffffffffffffffffffffffff166107d06110e9565b73ffffffffffffffffffffffffffffffffffffffff16145b610827576040517f08c379a000000000000000000000000000000000000000000000000000000000815260040161081e906132ae565b60405180910390fd5b60028081111561083a57610839612e47565b5b600b60009054906101000a900460ff16600281111561085c5761085b612e47565b5b1461089c576040517f08c379a00000000000000000000000000000000000000000000000000000000081526004016108939061331a565b60405180910390fd5b600860019054906101000a900460ff16156108ec576040517f08c379a00000000000000000000000000000000000000000000000000000000081526004016108e3906133ac565b60405180910390fd5b6000805b600580549050811015610a9e5781600582815481106109125761091161315f565b5b90600052602060002090600302016002015411156109da576005818154811061093e5761093d61315f565b5b90600052602060002090600302016002015491506006600582815481106109685761096761315f565b5b906000526020600020906003020190806001815401808255809150506001900390600052602060002090600302016000909190919091506000820154816000015560018201816001019080546109bd906133fb565b6109c8929190612551565b50600282015481600201555050610a8b565b81600582815481106109ef576109ee61315f565b5b90600052602060002090600302016002015403610a8a57600660058281548110610a1c57610a1b61315f565b5b90600052602060002090600302019080600181540180825580915050600190039060005260206000209060030201600090919091909150600082015481600001556001820181600101908054610a71906133fb565b610a7c929190612551565b506002820154816002015550505b5b8080610a969061342c565b9150506108f0565b506001600860016101000a81548160ff02191690831515021790555050565b60606005805480602002602001604051908101604052809291908181526020016000905b82821015610bb9578382906000526020600020906003020160405180606001604052908160008201548152602001600182018054610b1e906133fb565b80601f0160208091040260200160405190810160405280929190818152602001828054610b4a906133fb565b8015610b975780601f10610b6c57610100808354040283529160200191610b97565b820191906000526020600020905b815481529060010190602001808311610b7a57829003601f168201915b5050505050815260200160028201548152505081526020019060010190610ae1565b50505050905090565b60016020528060005260406000206000915054906101000a900460ff1681565b600a8054610bef906133fb565b80601f0160208091040260200160405190810160405280929190818152602001828054610c1b906133fb565b8015610c685780601f10610c3d57610100808354040283529160200191610c68565b820191906000526020600020905b815481529060010190602001808311610c4b57829003601f168201915b505050505081565b600260009054906101000a900473ffffffffffffffffffffffffffffffffffffffff1681565b60058181548110610ca657600080fd5b9060005260206000209060030201600091509050806000015490806001018054610ccf906133fb565b80601f0160208091040260200160405190810160405280929190818152602001828054610cfb906133fb565b8015610d485780601f10610d1d57610100808354040283529160200191610d48565b820191906000526020600020905b815481529060010190602001808311610d2b57829003601f168201915b5050505050908060020154905083565b610d60612485565b73ffffffffffffffffffffffffffffffffffffffff16610d7e6110e9565b73ffffffffffffffffffffffffffffffffffffffff1614610dd4576040517f08c379a0000000000000000000000000000000000000000000000000000000008152600401610dcb906134c0565b60405180910390fd5b600073ffffffffffffffffffffffffffffffffffffffff168173ffffffffffffffffffffffffffffffffffffffff1603610e0d57600080fd5b3373ffffffffffffffffffffffffffffffffffffffff168173ffffffffffffffffffffffffffffffffffffffff1603610e4557600080fd5b6000600160008373ffffffffffffffffffffffffffffffffffffffff1673ffffffffffffffffffffffffffffffffffffffff16815260200190815260200160002060006101000a81548160ff02191690831515021790555050565b600260009054906101000a900473ffffffffffffffffffffffffffffffffffffffff1673ffffffffffffffffffffffffffffffffffffffff163373ffffffffffffffffffffffffffffffffffffffff1614610f30576040517f08c379a0000000000000000000000000000000000000000000000000000000008152600401610f2790613552565b60405180910390fd5b60006002811115610f4457610f43612e47565b5b600b60009054906101000a900460ff166002811115610f6657610f65612e47565b5b14610fa6576040517f08c379a0000000000000000000000000000000000000000000000000000000008152600401610f9d906135be565b60405180910390fd5b600060035411610feb576040517f08c379a0000000000000000000000000000000000000000000000000000000008152600401610fe29061362a565b60405180910390fd5b6001600b60006101000a81548160ff0219169083600281111561101157611010612e47565b5b02179055506000600860006101000a81548160ff0219169083151502179055506000600860016101000a81548160ff021916908315150217905550565b611056612485565b73ffffffffffffffffffffffffffffffffffffffff166110746110e9565b73ffffffffffffffffffffffffffffffffffffffff16146110ca576040517f08c379a00000000000000000000000000000000000000000000000000000000081526004016110c1906134c0565b60405180910390fd5b6110d4600061248d565b565b600860019054906101000a900460ff1681565b60008060009054906101000a900473ffffffffffffffffffffffffffffffffffffffff16905090565b6000600281111561112657611125612e47565b5b600b60009054906101000a900460ff16600281111561114857611147612e47565b5b1480611186575060028081111561116257611161612e47565b5b600b60009054906101000a900460ff16600281111561118457611183612e47565b5b145b6111c5576040517f08c379a00000000000000000000000000000000000000000000000000000000081526004016111bc906135be565b60405180910390fd5b600160003373ffffffffffffffffffffffffffffffffffffffff1673ffffffffffffffffffffffffffffffffffffffff16815260200190815260200160002060009054906101000a900460ff168061124f57503373ffffffffffffffffffffffffffffffffffffffff166112376110e9565b73ffffffffffffffffffffffffffffffffffffffff16145b61128e576040517f08c379a0000000000000000000000000000000000000000000000000000000008152600401611285906132ae565b60405180910390fd5b6000600b60006101000a81548160ff021916908360028111156112b4576112b3612e47565b5b02179055506000600860006101000a81548160ff021916908315150217905550816000815181106112e8576112e761315f565b5b6020026020010151600990805190602001906113059291906125de565b508160018151811061131a5761131961315f565b5b6020026020010151600a90805190602001906113379291906125de565b5060006003819055506006600061134e9190612664565b6005600061135c9190612664565b6000600860016101000a81548160ff02191690831515021790555060005b6007805490508110156114b957600060046000600784815481106113a1576113a061315f565b5b9060005260206000200160009054906101000a900473ffffffffffffffffffffffffffffffffffffffff1673ffffffffffffffffffffffffffffffffffffffff1673ffffffffffffffffffffffffffffffffffffffff16815260200190815260200160002060010160006101000a81548160ff0219169083151502179055506000600460006007848154811061143a5761143961315f565b5b9060005260206000200160009054906101000a900473ffffffffffffffffffffffffffffffffffffffff1673ffffffffffffffffffffffffffffffffffffffff1673ffffffffffffffffffffffffffffffffffffffff1681526020019081526020016000206000018190555080806114b19061342c565b91505061137a565b50600760006114c89190612688565b60005b81518110156115915760056040518060600160405280600360008154809291906114f49061342c565b9190505581526020018484815181106115105761150f61315f565b5b60200260200101518152602001600081525090806001815401808255809150506001900390600052602060002090600302016000909190919091506000820151816000015560208201518160010190805190602001906115719291906125de565b5060408201518160020155505080806115899061342c565b9150506114cb565b50600160046000600260009054906101000a900473ffffffffffffffffffffffffffffffffffffffff1673ffffffffffffffffffffffffffffffffffffffff1673ffffffffffffffffffffffffffffffffffffffff168152602001908152602001600020600001819055506001600460003373ffffffffffffffffffffffffffffffffffffffff1673ffffffffffffffffffffffffffffffffffffffff168152602001908152602001600020600001819055506007600260009054906101000a900473ffffffffffffffffffffffffffffffffffffffff169080600181540180825580915050600190039060005260206000200160009091909190916101000a81548173ffffffffffffffffffffffffffffffffffffffff021916908373ffffffffffffffffffffffffffffffffffffffff1602179055506007339080600181540180825580915050600190039060005260206000200160009091909190916101000a81548173ffffffffffffffffffffffffffffffffffffffff021916908373ffffffffffffffffffffffffffffffffffffffff1602179055505050565b600260009054906101000a900473ffffffffffffffffffffffffffffffffffffffff1673ffffffffffffffffffffffffffffffffffffffff163373ffffffffffffffffffffffffffffffffffffffff16146117c0576040517f08c379a00000000000000000000000000000000000000000000000000000000081526004016117b7906136bc565b60405180910390fd5b600460008273ffffffffffffffffffffffffffffffffffffffff1673ffffffffffffffffffffffffffffffffffffffff16815260200190815260200160002060010160009054906101000a900460ff1615611850576040517f08c379a000000000000000000000000000000000000000000000000000000000815260040161184790613728565b60405180910390fd5b6000600460008373ffffffffffffffffffffffffffffffffffffffff1673ffffffffffffffffffffffffffffffffffffffff16815260200190815260200160002060000154146118d5576040517f08c379a00000000000000000000000000000000000000000000000000000000081526004016118cc90613794565b60405180910390fd5b600b60019054906101000a900473ffffffffffffffffffffffffffffffffffffffff1673ffffffffffffffffffffffffffffffffffffffff166340c10f1930600b60019054906101000a900473ffffffffffffffffffffffffffffffffffffffff1673ffffffffffffffffffffffffffffffffffffffff166370a08231306040518263ffffffff1660e01b815260040161196f9190612acc565b602060405180830381865afa15801561198c573d6000803e3d6000fd5b505050506040513d601f19601f820116820180604052508101906119b09190613032565b60016119bc91906137b4565b6040518363ffffffff1660e01b81526004016119d9929190613213565b600060405180830381600087803b1580156119f357600080fd5b505af1158015611a07573d6000803e3d6000fd5b50505050600b60019054906101000a900473ffffffffffffffffffffffffffffffffffffffff1673ffffffffffffffffffffffffffffffffffffffff1663a9059cbb8260016040518363ffffffff1660e01b8152600401611a69929190613136565b6020604051808303816000875af1158015611a88573d6000803e3d6000fd5b505050506040513d601f19601f82011682018060405250810190611aac9190613814565b506001600460008373ffffffffffffffffffffffffffffffffffffffff1673ffffffffffffffffffffffffffffffffffffffff168152602001908152602001600020600001819055506007819080600181540180825580915050600190039060005260206000200160009091909190916101000a81548173ffffffffffffffffffffffffffffffffffffffff021916908373ffffffffffffffffffffffffffffffffffffffff1602179055507fa1a44aa46881276a64bedfb3fcc9196ff114d83a548588b6cd6513070984db1d816001604051611b8a929190613136565b60405180910390a150565b60046020528060005260406000206000915090508060000154908060010160009054906101000a900460ff16908060020154905083565b60006002811115611be057611bdf612e47565b5b600b60009054906101000a900460ff166002811115611c0257611c01612e47565b5b1480611c405750600280811115611c1c57611c1b612e47565b5b600b60009054906101000a900460ff166002811115611c3e57611c3d612e47565b5b145b611c7f576040517f08c379a0000000000000000000000000000000000000000000000000000000008152600401611c76906135be565b60405180910390fd5b6000600b60006101000a81548160ff02191690836002811115611ca557611ca4612e47565b5b02179055506000600860006101000a81548160ff02191690831515021790555060005b8151811015611d8e576005604051806060016040528060036000815480929190611cf19061342c565b919050558152602001848481518110611d0d57611d0c61315f565b5b6020026020010151815260200160008152509080600181540180825580915050600190039060005260206000209060030201600090919091909150600082015181600001556020820151816001019080519060200190611d6e9291906125de565b506040820151816002015550508080611d869061342c565b915050611cc8565b5050565b60098054611d9f906133fb565b80601f0160208091040260200160405190810160405280929190818152602001828054611dcb906133fb565b8015611e185780601f10611ded57610100808354040283529160200191611e18565b820191906000526020600020905b815481529060010190602001808311611dfb57829003601f168201915b505050505081565b600260009054906101000a900473ffffffffffffffffffffffffffffffffffffffff1673ffffffffffffffffffffffffffffffffffffffff163373ffffffffffffffffffffffffffffffffffffffff1614611eb0576040517f08c379a0000000000000000000000000000000000000000000000000000000008152600401611ea790613552565b60405180910390fd5b60016002811115611ec457611ec3612e47565b5b600b60009054906101000a900460ff166002811115611ee657611ee5612e47565b5b14611f26576040517f08c379a0000000000000000000000000000000000000000000000000000000008152600401611f1d90612f25565b60405180910390fd5b6002600b60006101000a81548160ff02191690836002811115611f4c57611f4b612e47565b5b02179055506000600860016101000a81548160ff021916908315150217905550565b600b60009054906101000a900460ff1681565b600860009054906101000a900460ff1681565b611f9c612485565b73ffffffffffffffffffffffffffffffffffffffff16611fba6110e9565b73ffffffffffffffffffffffffffffffffffffffff1614612010576040517f08c379a0000000000000000000000000000000000000000000000000000000008152600401612007906134c0565b60405180910390fd5b600073ffffffffffffffffffffffffffffffffffffffff168173ffffffffffffffffffffffffffffffffffffffff160361204957600080fd5b60018060008373ffffffffffffffffffffffffffffffffffffffff1673ffffffffffffffffffffffffffffffffffffffff16815260200190815260200160002060006101000a81548160ff02191690831515021790555050565b600260009054906101000a900473ffffffffffffffffffffffffffffffffffffffff1673ffffffffffffffffffffffffffffffffffffffff163373ffffffffffffffffffffffffffffffffffffffff1614612133576040517f08c379a000000000000000000000000000000000000000000000000000000000815260040161212a90613552565b60405180910390fd5b60028081111561214657612145612e47565b5b600b60009054906101000a900460ff16600281111561216857612167612e47565b5b146121a8576040517f08c379a000000000000000000000000000000000000000000000000000000000815260040161219f9061331a565b60405180910390fd5b6001600860006101000a81548160ff021916908315150217905550565b60606002808111156121da576121d9612e47565b5b600b60009054906101000a900460ff1660028111156121fc576121fb612e47565b5b1461223c576040517f08c379a00000000000000000000000000000000000000000000000000000000081526004016122339061331a565b60405180910390fd5b600860009054906101000a900460ff1661228b576040517f08c379a0000000000000000000000000000000000000000000000000000000008152600401612282906138b3565b60405180910390fd5b6006805480602002602001604051908101604052809291908181526020016000905b828210156123855783829060005260206000209060030201604051806060016040529081600082015481526020016001820180546122ea906133fb565b80601f0160208091040260200160405190810160405280929190818152602001828054612316906133fb565b80156123635780601f1061233857610100808354040283529160200191612363565b820191906000526020600020905b81548152906001019060200180831161234657829003601f168201915b50505050508152602001600282015481525050815260200190600101906122ad565b50505050905090565b612396612485565b73ffffffffffffffffffffffffffffffffffffffff166123b46110e9565b73ffffffffffffffffffffffffffffffffffffffff161461240a576040517f08c379a0000000000000000000000000000000000000000000000000000000008152600401612401906134c0565b60405180910390fd5b600073ffffffffffffffffffffffffffffffffffffffff168173ffffffffffffffffffffffffffffffffffffffff1603612479576040517f08c379a000000000000000000000000000000000000000000000000000000000815260040161247090613945565b60405180910390fd5b6124828161248d565b50565b600033905090565b60008060009054906101000a900473ffffffffffffffffffffffffffffffffffffffff169050816000806101000a81548173ffffffffffffffffffffffffffffffffffffffff021916908373ffffffffffffffffffffffffffffffffffffffff1602179055508173ffffffffffffffffffffffffffffffffffffffff168173ffffffffffffffffffffffffffffffffffffffff167f8be0079c531659141344cd1fd0a4f28419497f9722a3daafe3b4186f6b6457e060405160405180910390a35050565b82805461255d906133fb565b90600052602060002090601f01602090048101928261257f57600085556125cd565b82601f1061259057805485556125cd565b828001600101855582156125cd57600052602060002091601f016020900482015b828111156125cc5782548255916001019190600101906125b1565b5b5090506125da91906126a9565b5090565b8280546125ea906133fb565b90600052602060002090601f01602090048101928261260c5760008555612653565b82601f1061262557805160ff1916838001178555612653565b82800160010185558215612653579182015b82811115612652578251825591602001919060010190612637565b5b50905061266091906126a9565b5090565b508054600082556003029060005260206000209081019061268591906126c6565b50565b50805460008255906000526020600020908101906126a691906126a9565b50565b5b808211156126c25760008160009055506001016126aa565b5090565b5b808211156126f9576000808201600090556001820160006126e891906126fd565b6002820160009055506003016126c7565b5090565b508054612709906133fb565b6000825580601f1061271b575061273a565b601f01602090049060005260206000209081019061273991906126a9565b5b50565b6000604051905090565b600080fd5b600080fd5b6000819050919050565b61276481612751565b811461276f57600080fd5b50565b6000813590506127818161275b565b92915050565b60006020828403121561279d5761279c612747565b5b60006127ab84828501612772565b91505092915050565b600081519050919050565b600082825260208201905092915050565b6000819050602082019050919050565b6127e981612751565b82525050565b600081519050919050565b600082825260208201905092915050565b60005b8381101561282957808201518184015260208101905061280e565b83811115612838576000848401525b50505050565b6000601f19601f8301169050919050565b600061285a826127ef565b61286481856127fa565b935061287481856020860161280b565b61287d8161283e565b840191505092915050565b60006060830160008301516128a060008601826127e0565b50602083015184820360208601526128b8828261284f565b91505060408301516128cd60408601826127e0565b508091505092915050565b60006128e48383612888565b905092915050565b6000602082019050919050565b6000612904826127b4565b61290e81856127bf565b935083602082028501612920856127d0565b8060005b8581101561295c578484038952815161293d85826128d8565b9450612948836128ec565b925060208a01995050600181019050612924565b50829750879550505050505092915050565b6000602082019050818103600083015261298881846128f9565b905092915050565b600073ffffffffffffffffffffffffffffffffffffffff82169050919050565b60006129bb82612990565b9050919050565b6129cb816129b0565b81146129d657600080fd5b50565b6000813590506129e8816129c2565b92915050565b600060208284031215612a0457612a03612747565b5b6000612a12848285016129d9565b91505092915050565b60008115159050919050565b612a3081612a1b565b82525050565b6000602082019050612a4b6000830184612a27565b92915050565b600082825260208201905092915050565b6000612a6d826127ef565b612a778185612a51565b9350612a8781856020860161280b565b612a908161283e565b840191505092915050565b60006020820190508181036000830152612ab58184612a62565b905092915050565b612ac6816129b0565b82525050565b6000602082019050612ae16000830184612abd565b92915050565b612af081612751565b82525050565b6000606082019050612b0b6000830186612ae7565b8181036020830152612b1d8185612a62565b9050612b2c6040830184612ae7565b949350505050565b600080fd5b7f4e487b7100000000000000000000000000000000000000000000000000000000600052604160045260246000fd5b612b718261283e565b810181811067ffffffffffffffff82111715612b9057612b8f612b39565b5b80604052505050565b6000612ba361273d565b9050612baf8282612b68565b919050565b600067ffffffffffffffff821115612bcf57612bce612b39565b5b602082029050602081019050919050565b600080fd5b600080fd5b600067ffffffffffffffff821115612c0557612c04612b39565b5b612c0e8261283e565b9050602081019050919050565b82818337600083830152505050565b6000612c3d612c3884612bea565b612b99565b905082815260208101848484011115612c5957612c58612be5565b5b612c64848285612c1b565b509392505050565b600082601f830112612c8157612c80612b34565b5b8135612c91848260208601612c2a565b91505092915050565b6000612cad612ca884612bb4565b612b99565b90508083825260208201905060208402830185811115612cd057612ccf612be0565b5b835b81811015612d1757803567ffffffffffffffff811115612cf557612cf4612b34565b5b808601612d028982612c6c565b85526020850194505050602081019050612cd2565b5050509392505050565b600082601f830112612d3657612d35612b34565b5b8135612d46848260208601612c9a565b91505092915050565b60008060408385031215612d6657612d65612747565b5b600083013567ffffffffffffffff811115612d8457612d8361274c565b5b612d9085828601612d21565b925050602083013567ffffffffffffffff811115612db157612db061274c565b5b612dbd85828601612d21565b9150509250929050565b6000606082019050612ddc6000830186612ae7565b612de96020830185612a27565b612df66040830184612ae7565b949350505050565b600060208284031215612e1457612e13612747565b5b600082013567ffffffffffffffff811115612e3257612e3161274c565b5b612e3e84828501612d21565b91505092915050565b7f4e487b7100000000000000000000000000000000000000000000000000000000600052602160045260246000fd5b60038110612e8757612e86612e47565b5b50565b6000819050612e9882612e76565b919050565b6000612ea882612e8a565b9050919050565b612eb881612e9d565b82525050565b6000602082019050612ed36000830184612eaf565b92915050565b7f6974206d75737420626520696e20566f74696e6720506572696f640000000000600082015250565b6000612f0f601b83612a51565b9150612f1a82612ed9565b602082019050919050565b60006020820190508181036000830152612f3e81612f02565b9050919050565b7f486173206e6f20726967687420746f20766f7465000000000000000000000000600082015250565b6000612f7b601483612a51565b9150612f8682612f45565b602082019050919050565b60006020820190508181036000830152612faa81612f6e565b9050919050565b7f416c726561647920766f7465642e000000000000000000000000000000000000600082015250565b6000612fe7600e83612a51565b9150612ff282612fb1565b602082019050919050565b6000602082019050818103600083015261301681612fda565b9050919050565b60008151905061302c8161275b565b92915050565b60006020828403121561304857613047612747565b5b60006130568482850161301d565b91505092915050565b7f5468652063616c6c657220697320756e61626c6520746f20766f74652c206e6f60008201527f7420417574686f72697a65640000000000000000000000000000000000000000602082015250565b60006130bb602c83612a51565b91506130c68261305f565b604082019050919050565b600060208201905081810360008301526130ea816130ae565b9050919050565b6000819050919050565b6000819050919050565b600061312061311b613116846130f1565b6130fb565b612751565b9050919050565b61313081613105565b82525050565b600060408201905061314b6000830185612abd565b6131586020830184613127565b9392505050565b7f4e487b7100000000000000000000000000000000000000000000000000000000600052603260045260246000fd5b7f4e487b7100000000000000000000000000000000000000000000000000000000600052601160045260246000fd5b60006131c882612751565b91506131d383612751565b9250827fffffffffffffffffffffffffffffffffffffffffffffffffffffffffffffffff038211156132085761320761318e565b5b828201905092915050565b60006040820190506132286000830185612abd565b6132356020830184612ae7565b9392505050565b7f4f6e6c7920417574686f72697a65642041646d696e732061726520616c6c6f7760008201527f656420746f206163636573732074686973207365727669636500000000000000602082015250565b6000613298603983612a51565b91506132a38261323c565b604082019050919050565b600060208201905081810360008301526132c78161328b565b9050919050565b7f6974206d75737420626520696e20456e64656420506572696f64000000000000600082015250565b6000613304601a83612a51565b915061330f826132ce565b602082019050919050565b60006020820190508181036000830152613333816132f7565b9050919050565b7f54686520726573756c74732068617665206265656e2063616c63756c6174656460008201527f20616c7265616479000000000000000000000000000000000000000000000000602082015250565b6000613396602883612a51565b91506133a18261333a565b604082019050919050565b600060208201905081810360008301526133c581613389565b9050919050565b7f4e487b7100000000000000000000000000000000000000000000000000000000600052602260045260246000fd5b6000600282049050600182168061341357607f821691505b602082108103613426576134256133cc565b5b50919050565b600061343782612751565b91507fffffffffffffffffffffffffffffffffffffffffffffffffffffffffffffffff82036134695761346861318e565b5b600182019050919050565b7f4f776e61626c653a2063616c6c6572206973206e6f7420746865206f776e6572600082015250565b60006134aa602083612a51565b91506134b582613474565b602082019050919050565b600060208201905081810360008301526134d98161349d565b9050919050565b7f4f6e6c79206368616972706572736f6e2063616e20737461727420616e64206560008201527f6e642074686520766f74696e6700000000000000000000000000000000000000602082015250565b600061353c602d83612a51565b9150613547826134e0565b604082019050919050565b6000602082019050818103600083015261356b8161352f565b9050919050565b7f6974206d75737420626520696e20537461727465640000000000000000000000600082015250565b60006135a8601583612a51565b91506135b382613572565b602082019050919050565b600060208201905081810360008301526135d78161359b565b9050919050565b7f4e6f2043616e6469646174656420616464656400000000000000000000000000600082015250565b6000613614601383612a51565b915061361f826135de565b602082019050919050565b6000602082019050818103600083015261364381613607565b9050919050565b7f4f6e6c79206368616972706572736f6e2063616e20676976652072696768742060008201527f746f20766f74652e000000000000000000000000000000000000000000000000602082015250565b60006136a6602883612a51565b91506136b18261364a565b604082019050919050565b600060208201905081810360008301526136d581613699565b9050919050565b7f54686520766f74657220616c726561647920766f7465642e0000000000000000600082015250565b6000613712601883612a51565b915061371d826136dc565b602082019050919050565b6000602082019050818103600083015261374181613705565b9050919050565b7f566f7465722063616e20766f74656420616c7265616479000000000000000000600082015250565b600061377e601783612a51565b915061378982613748565b602082019050919050565b600060208201905081810360008301526137ad81613771565b9050919050565b60006137bf82612751565b91506137ca83612751565b9250828210156137dd576137dc61318e565b5b828203905092915050565b6137f181612a1b565b81146137fc57600080fd5b50565b60008151905061380e816137e8565b92915050565b60006020828403121561382a57613829612747565b5b6000613838848285016137ff565b91505092915050565b7f526573756c74206e6f74207965742072656c656173652062792074686520436860008201527f616972506572736f6e0000000000000000000000000000000000000000000000602082015250565b600061389d602983612a51565b91506138a882613841565b604082019050919050565b600060208201905081810360008301526138cc81613890565b9050919050565b7f4f776e61626c653a206e6577206f776e657220697320746865207a65726f206160008201527f6464726573730000000000000000000000000000000000000000000000000000602082015250565b600061392f602683612a51565b915061393a826138d3565b604082019050919050565b6000602082019050818103600083015261395e81613922565b905091905056fea26469706673582212207dddbf5188927eeb8f42ccbd3c90e4ba421a8fc5d9f7f9dfbea15b5aaa2f979064736f6c634300080d0033",
  "linkReferences": {},
  "deployedLinkReferences": {}
}